:100000000C94FF1A0C943F1B0C943F1B0C943F1B49
:100010000C943F1B0C943F1B0C943F1B0C943F1BF8
:100020000C943F1B0C94B4800C94B4800C94B4805A
:100030000C943F1B0C943F1B0C943F1B0C943F1BD8
:100040000C943F1B0C9465EF0C943F1B0C943F1BCE
:100050000C943F1B0C9493EE0C943F1B0C94FCE30C
:100060000C943F1B0C94D1500C94C7500C943F1B24
:100070000C943F1B0C943F1B0C943F1B0C943F1B98
:100080000C943F1B0C943F1B0C943F1B0C943F1B88
:100090000C943F1B0C943F1B0C943F1B0C943F1B78
:1000A0000C943F1B0C943F1B0C943F1B0C943F1B68
:1000B0000C943F1B0C943F1B0C943F1B0C943F1B58
:1000C0000C943F1B0C943F1B0C943F1B0C943F1B48
:1000D0000C943F1B0C943F1B0C943F1B0C943F1B38
:1000E0000C943F1B084AD73B3BCE016E84BCBFFD3E
:1000F000C12F3D6C74319ABD56833DDA3D00C77FF8
:1001000011BED9E4BB4C3E916BAAAABE0000008090
:100110003F05A84CCDB2D44EB93836A9020C50B91F
:10012000918688083CA6AAAA2ABE000000803F0744
:10013000634236B79BD8A71A39685618AEBAAB5582
:100140008C1D3CB7CC5763BD6DEDFD753EF6177247
:1001500031BF000000803F08000000BE9224491219
:100160003EABAAAA2ABECDCCCC4C3E00000080BE3D
:10017000ABAAAAAA3E00000000BF000000803F001A
:1001800000000000084178D3BB4387D1133D190E0E
:100190003CC3BD4282AD2B3E68EC8276BED98FE176
:1001A000A93E4C80EFFFBE01C4FF7F3F000000006E
:1001B00000000D94AA094E414E494E495459494EEA
:1001C00046CDCCCC3D0AD7233C17B7D13877CC2BC2
:1001D000329595E6241FB14F0A000020410000C867
:1001E0004200401C4620BCBE4CCA1B0E5AAEC59DE8
:1001F0007400407A10F35A00A0724E18090010A53E
:10020000D4E80000E87648170000E40B5402000030
:10021000CA9A3B000000E1F50500008096980000B6
:100220000040420F000000A08601000000102700DF
:10023000000000E803000000006400000000000A65
:1002400000000000000100000000002C76D888DCCF
:10025000674F0823DFC1DFAE59E1B1B796E5E3E4AC
:1002600053C63AE651997696E8E6C28426EB898C25
:100270009B62ED407C6FFCEFBC9C9F40F2BAA56F87
:10028000A5F490055A2AF75C936B6CF9676DC11B56
:10029000FCE0E40D47FEF520E6B500D0ED902E031E
:1002A00000943577050080841E080000204E0A0067
:1002B0000000C80C333333330F986E12831141EFB3
:1002C0008D2114893BE65516CFFEE6DB18D1844B11
:1002D000381BF77C1D901DA4BBE424203284725E81
:1002E000228100C9F124ECA1E53D2753544F505021
:1002F00045442E20005072696E7465722073746FCD
:10030000707065642064756520746F206572726F0B
:1003100072732E2046697820746865206572726F4A
:100320007220616E6420757365204D3939392074EF
:100330006F20726573746172742E202854656D701D
:100340006572617475726520697320726573657476
:100350002E20536574206974206166746572207262
:10036000657374617274696E67290A004E6F204369
:100370006865636B73756D2077697468206C696E4E
:1003800065206E756D6265722C204C617374204C13
:10039000696E653A2000636865636B73756D206DE7
:1003A00069736D617463682C204C617374204C69AF
:1003B0006E653A20004C696E65204E756D626572FF
:1003C000206973206E6F74204C617374204C696EC9
:1003D00065204E756D6265722B312C204C617374F3
:1003E000204C696E653A20004D3131300053657202
:1003F00069616C20737461747573206D69736D61CC
:100400007463680A006D4129002064726976657220
:10041000206F76657274656D706572617475726552
:10042000207761726E696E67212028003A200020D3
:1004300063757272656E742064656372656173655D
:100440006420746F20006D41290020647269766514
:1004500072206F76657274656D7065726174757205
:1004600065207761726E696E67212028003A20004E
:100470002063757272656E74206465637265617362
:10048000656420746F20004B494C4C206275747475
:100490006F6E2F70696E0A002121204B494C4C2051
:1004A0006361757365642062792000746F6F206DDD
:1004B00075636820696E6163746976652074696D1F
:1004C00065202D2063757272656E7420636F6D6D8B
:1004D000616E643A20002121204B494C4C2063611D
:1004E000757365642062792000627573793A2070B3
:1004F000617573656420666F7220696E7075740A29
:1005000000627573793A2070617573656420666F57
:100510007220757365720A00627573793A20707281
:100520006F63657373696E670A00506C656173650C
:10053000205265736574005052494E54455220480C
:10054000414C5445440025533A20255300706F77A1
:1005500065726F6666004B494C4C45442E20005036
:1005600072696E7465722068616C7465642E206BAC
:10057000696C6C28292063616C6C6564210A000039
:100580006563686F3A004572726F723A0066616C1B
:1005900073650074727565005072696E74696E6778
:1005A000204F626A656374002046002057002020B7
:1005B0004D32303720530020460020570020204D78
:1005C00032303820530020204D3230392053006E15
:1005D0006F74696669636174696F6E2000656E642B
:1005E0000073686F7700627574746F6E00486F7483
:1005F000656E6420746F6F20636F6C640A005365CE
:100600006E64204D31303820746F20726573756DC3
:10061000650A00496E736572742066696C616D6568
:100620006E7420616E642073656E64204D313038C5
:100630000A0052656865617420446F6E65005265FA
:1006400068656174696E672E2E2E0052656865615B
:1006500074004865617465722054696D656F7574C6
:100660000053656E64204D31303820746F2068650A
:100670006174206E6F7A7A6C650A004E6F7A7A6CBC
:1006800065205061726B656400706175736564000C
:10069000486561642063616E6E6F742062652070CE
:1006A00061726B6564005061757365002568753A09
:1006B00025303268750025303268753A2530326849
:1006C0007500253032687527253032687500256839
:1006D00075642025303268753A25303268750044DB
:1006E0007269766572206572726F7200636F696CF1
:1006F0002073686F727420636972637569740A008D
:100700006F76657274656D70657261747572650A75
:100710000020647269766572206572726F7220645F
:10072000657465637465643A20307800092042611D
:100730006420726573706F6E7365210009204261D9
:100740006420726573706F6E73652100303D2E33C7
:10075000323500313D2E3138006D6178002F333154
:10076000002F3331002F333100303D2E333235002E
:10077000313D2E3138006D6178002F3331002F3339
:1007800031002F33310020440020204D3230302002
:100790005300202844697361626C6564293A0046FD
:1007A000696C616D656E742073657474696E6773CE
:1007B0000020204D3230312058004D6178204163B7
:1007C00063656C65726174696F6E2028756E6974FB
:1007D000732F7332290020204D3230332058004DC2
:1007E0006178206665656472617465732028756E32
:1007F0006974732F73290020520020204D32303449
:10080000205000416363656C65726174696F6E208E
:1008100028756E6974732F7332292028503C7072CA
:10082000696E742D616363656C3E20523C72657421
:10083000726163742D616363656C3E20543C747215
:100840006176656C2D616363656C3E2900204A000A
:1008500020540020530020204D32303520420041EA
:100860006476616E6365642028423C6D696E5F73D7
:1008700065676D656E745F74696D655F75733E2045
:10088000533C6D696E5F66656564726174653E2098
:10089000543C6D696E5F74726176656C5F66656508
:1008A00064726174653E204A3C6A756E635F64657C
:1008B000763E290020440020490020204D3330316D
:1008C000205000486F74656E6420504944004F46C4
:1008D00046004F4E0020204D61783A200020002035
:1008E000204D696E3A2000203B200020204D3231FF
:1008F00031205300536F667420656E6473746F709B
:100900007300203B0020550020204D363033204C12
:100910000046696C616D656E74206C6F61642F7543
:100920006E6C6F616400617869733A70776D5F73A4
:1009300063616C652F637572725F7363616C652FA1
:100940006D6563685F6C6F61647C666C6167737C06
:100950007761726E636F756E740A004452565F530E
:100960005441545553090050574D5F5343414C4532
:10097000090050574D434F4E460900434F4F4C43DB
:100980004F4E46090043484F50434F4E46090054CE
:100990004849474809090054434F4F4C5448525363
:1009A00009005450574D544852530900545354456C
:1009B0005009090054504F574552444F574E0900B3
:1009C000494F494E09090047535441540909004908
:1009D000484F4C445F4952554E090047434F4E46DD
:1009E0000909000900202E68737472743A200020EF
:1009F0002E68656E643A20002063686F70706572BF
:100A0000202E746F66663A2000202E68737472740C
:100A10003A2000202E68656E643A20002063686FDB
:100A200070706572202E746F66663A2000206861CF
:100A300073206E6F20544D43206472697665727323
:100A40002E0A003F4178697320003F53206F757470
:100A5000206F662072616E67652028312E2E38293E
:100A60000A003F50206F7574206F662072616E67B8
:100A70006520282D332E2E3132290A003F4F206F5A
:100A80007574206F662072616E67652028312E2E86
:100A90003135290A003B200020496E76616C69647B
:100AA000206578747275646572200020204D3230A4
:100AB00036205800486F6D65206F66667365740058
:100AC0004361703A00434F4E4649475F4558504F87
:100AD0005254004D4541545041434B00434F4F4CFD
:100AE00045525F54454D504552415455524500437F
:100AF00048414D4245525F54454D50455241545531
:100B000052450045505F42414259535445500042BE
:100B10004142595354455050494E47004152435366
:100B2000004D4F54494F4E5F4D4F4445530054487C
:100B300045524D414C5F50524F54454354494F4EDE
:100B400000455854454E4445445F4D3230004355AE
:100B500053544F4D5F4649524D574152455F555092
:100B60004C4F4144004C464E5F5752495445004C4F
:100B70004F4E475F46494C454E414D450041555407
:100B80004F5245504F52545F53445F535441545554
:100B9000530053445F575249544500524550454114
:100BA00054005344434152440050524F4D50545FFF
:100BB000535550504F525400484F53545F41435483
:100BC000494F4E5F434F4D4D414E445300454D45B7
:100BD0005247454E43595F5041525345520043419D
:100BE00053455F4C494748545F4252494748544E29
:100BF00045535300544F47474C455F4C4947485471
:100C00005300534F4654574152455F504F5745523A
:100C1000004255494C445F50455243454E54004CA8
:100C20004556454C494E475F44415441005A5F5038
:100C3000524F42450052554E4F5554004155544F66
:100C40004C4556454C005052494E545F4A4F420065
:100C500050524F4752455353004155544F524550FF
:100C60004F52545F54454D50004155544F524550DA
:100C70004F52545F504F5300564F4C554D455452B0
:100C8000494300454550524F4D0042494E4152594B
:100C90005F46494C455F5452414E534645520053BE
:100CA000455249414C5F584F4E5F584F46460046AB
:100CB00049524D574152455F4E414D453A4D617243
:100CC0006C696E206275676669782D322E312E78D8
:100CD00020284465632020392032303233203136D9
:100CE0003A33333A30322920534F555243455F430C
:100CF0004F44455F55524C3A6769746875622E637C
:100D00006F6D2F4D61726C696E4669726D7761729D
:100D1000652F4D61726C696E2050524F544F434F96
:100D20004C5F56455253494F4E3A312E30204D417B
:100D30004348494E455F545950453A41726368698A
:100D40005072696E7465722045585452554445522C
:100D50005F434F554E543A3120555549443A6365E7
:100D60006465326132662D343161322D3437343866
:100D70002D396231322D633535633632663336377D
:100D8000666600436F6F6C696E672E2E2E004531CC
:100D90002025530020573A0042656420436F6F6C52
:100DA000696E672E2E2E0042656420486561746965
:100DB0006E672E2E2E00206661696C6564212042CC
:100DC0006164206865617465722069640A00504935
:100DD00044204175746F74756E650023646566699F
:100DE0006E652044454641554C545F004B642000DD
:100DF0004B6920004B7020005049442074756E6987
:100E00006E6720646F6E65002066696E6973686541
:100E100064212050757420746865206C617374209F
:100E20004B702C204B6920616E64204B6420636FF3
:100E30006E7374616E74732066726F6D2062656C80
:100E40006F7720696E746F20436F6E666967757285
:100E50006174696F6E2E680A0050494420417574B0
:100E60006F74756E6500206661696C65642120741D
:100E7000696D656F75740A00504944204175746F3F
:100E800074756E65004175746F74756E652066616A
:100E9000696C6564212054696D656F75742E00203E
:100EA0006661696C6564212054656D70657261745A
:100EB00075726520746F6F20686967680A00504911
:100EC00044204175746F74756E6500504944204329
:100ED00079636C65730025532025692F25690020EF
:100EE0004B643A2000204B693A2000204B703A2096
:100EF0000020436C617373696320504944200A00E9
:100F00002054753A2000204B753A2000206D6178FE
:100F10003A2000206D696E3A200020643A200020BB
:100F2000626961733A200048656174696E672E2EAC
:100F30002E002073746172740A0050494420417578
:100F4000746F74756E65004175746F74756E65208D
:100F50006661696C6564212054656D7065726174A9
:100F600075726520746F6F20686967682E0020664F
:100F700061696C6564212054656D7065726174757A
:100F8000726520746F6F20686967680A0050494471
:100F9000204175746F74756E650050494420417529
:100FA000746F74756E65004572723A207574663898
:100FB00020666F6E74206E6F7420696E697469614B
:100FC0006C697A65642E004572723A2075746638D1
:100FD00020666F6E74206E6F7420696E697469612B
:100FE0006C697A65642E004572723A2075746638B1
:100FF00020666F6E74206E6F7420696E697469610B
:101000006C697A65642E00200020003A00200020E0
:10101000003A003A0042656400456E636C6F737578
:101020007265002000200020002000200025002004
:101030002020202020200020202020006572720027
:101040001FE0201020102010102010202010201051
:1010500030300840048003001FE03FF03FF03FF0D5
:101060001FE01FE03FF03FF03FF00FC0078003009C
:101070003FFFF038007030FC3020FC10207810204A
:1010800030102C00D02E31D02F7BD02F7BD02E31A2
:10109000D02C00D020301020781020FC1030FC30F4
:1010A0003800703FFFF03FFFF0380070318630238A
:1010B00087102787902F87D02F03D02030102078DB
:1010C000102078102030102F03D02F87D027879042
:1010D0002387103186303800703FFFF01FFFF81F64
:1010E000FFF80410400208200208200410400820E5
:1010F00080104100104100082080041040000000D2
:101100001FFFF81FFFF8F80180000C480080001254
:1011100043C38CD00271249267CC41249E40024983
:1011200024904012FBB3CEE00C63616E63656C00EB
:101130005072696E742041626F7274656400554923
:101140002041626F72746564004D323520500A4D43
:10115000323400526573756D6500554920506175D4
:1011600073650050617573696E672E2E2E0072656F
:1011700073756D65003F0049676E6F72650052655B
:1011800073657400496E697469616C697A6520459C
:101190004550524F4D00000C0F00FE07022503BBC7
:1011A000017FFE08FE08FE05080806000040F0C8A2
:1011B0008888987810050808060000C0F888888894
:1011C0008888F80505050600012030F8302005085C
:1011D000080600002070F820202020E005090906FC
:1011E00000FF2070A8A8B8888870200705050700B0
:1011F00001D86C366CD80509090600FFF8A8888864
:10120000888888A8F8050A0A0600FE205050505029
:1012100088A8A8887003030306000340A040FFFFCE
:10122000FFFFFFFFFFFFFFFFFFFFFFFFFFFFFFFFCE
:10123000FFFFFFFF0000000605FF01070706020091
:1012400080808080800080030303060105A0A0A0A9
:1012500005060606000050F85050F850050909062A
:1012600000FF2070A8A07028A870200507070600BE
:1012700000C8C8102040989805070706000040A045
:10128000A040A8906801030306020580808003093E
:10129000090601FF2040408080804040200309096A
:1012A0000601FF80404020202040408005070706BF
:1012B000000020A8702070A8200505050600012068
:1012C00020F820200203030601FFC0408005010131
:1012D000060003F8020202060100C0C00507070667
:1012E000000008101020404080050707060000702D
:1012F0008898A8C8887003070706010040C04040CE
:101300004040E0050707060000708808102040F8FC
:10131000050707060000F808103008887005070761
:1013200006000010305090F8101005070706000066
:10133000F880F00808887005070706000030408034
:10134000F0888870050707060000F80810102020B4
:1013500020050707060000708888708888700507D8
:1013600007060000708888780810600205050601ED
:1013700000C0C000C0C00206060601FFC0C000C019
:10138000408003050506010120408040200503033D
:10139000060002F800F80305050601018040204020
:1013A0008005070706000070881020200020050730
:1013B000070600007088B8A8B88070050707060007
:1013C00000708888F8888888050707060000F048BC
:1013D00048704848F0050707060000708880808044
:1013E0008870050707060000F04848484848F0059F
:1013F0000707060000F88080F08080F805070706E0
:101400000000F88080F080808005070706000070EB
:10141000888080988870050707060000888888F80B
:10142000888888030707060100E04040404040E00C
:101430000507070600003810101010906005070718
:101440000600008890A0C0A090880507070600004D
:10145000808080808080F805070706000088D8A873
:10146000888888880507070600008888C8A89888A3
:101470008805070706000070888888888870050737
:1014800007060000F08888F08080800507070600C6
:101490000070888888A89068050707060000F08813
:1014A00088F0A09088050707060000708880700803
:1014B0008870050707060000F8202020202020055E
:1014C000070706000088888888888870050707064F
:1014D000000088888888505020050707060000888B
:1014E000888888A8A850050707060000888850202B
:1014F0005088880507070600008888502020202093
:10150000050707060000F80810204080F8030909C5
:101510000601FFE080808080808080E0050707066C
:101520000000804040201010080309090601FFE078
:1015300020202020202020E0050303060005205065
:10154000880501010600FEF803030306010580403B
:10155000200505050600007008788878050707064D
:1015600000008080F0888888F0050505060000707E
:10157000808088700507070600000808788888883A
:10158000780505050600007088F0807005070706DD
:101590000000304840E04040400507070600FE706C
:1015A0008888887808700507070600008080F08822
:1015B0008888880307070601004000C0404040E0DB
:1015C0000409090601FE100030101010109060058B
:1015D000070706000080808890E0908803070706D0
:1015E0000100C04040404040E0050505060000D035
:1015F000A8A8A8A8050505060000B0C88888880521
:10160000050506000070888888700507070600FE3B
:10161000F0888888F080800507070600FE788888B3
:1016200088780808050505060000B0C88080800598
:10163000050506000078807008F005070706000021
:101640002020F8202020180505050600008888883D
:10165000986805050506000088888850200505055E
:101660000600008888A8A8500505050600008850D7
:101670002050880507070600FE8888885020408093
:10168000050505060000F8102040F80309090601C9
:10169000FF2040404080404040200109090602FFF1
:1016A0008080808080808080800309090601FF801F
:1016B000404040204040408005030306000248A807
:1016C00090FF434F4D4D554E49434154494F4E00B5
:1016D00044525952554E004552524F525300494EB2
:1016E000464F004543484F002001400130013B0177
:1016F000400136016001310170012C019001270188
:10170000B0012201C0011D01F001180110021301F6
:1017100030020E016002090190020401C002FF00C4
:101720000003FA004003F5008003F000D003EB0053
:101730002004E6007004E100E004DC004005D7006E
:10174000C005D2004006CD00D006C8008007C30007
:101750003008BE00F008B900C009B400B00AAF00FC
:10176000B00BAA00D00CA500000EA000500F9B00EB
:10177000C01096005012910000148C00C015870014
:10178000B0178200B0197D00D01B7800001E7300D6
:1017900040206E0090226900F024640040275F0022
:1017A00090295A00E02B5500102E500020304B009D
:1017B00010324600E033410090353C0010373700CE
:1017C00070383200A0392D00B03A2800A03B230029
:1017D000603C1E00103D1900903D1400103E0F00AB
:1017E000703E0A00C03E0500003F0000403FFBFF86
:1017F000803FF6FFC03FF1FF0000210024002700DA
:101800002A002D003000330001010000040107010F
:101810000A0100002200250028002B002E003100C4
:10182000340002010000050108010B010505050552
:10183000070508080808020202020A0A0808040448
:101840000404010101010101010103030303030376
:101850000303040707070C0C0C0C0C0C0C0C020205
:10186000020206060606060606060B0B0B0B0B0B02
:101870000B0B01021020200808102040102040808F
:101880000201020108040201010204081020408044
:1018900080402010080402018004020180402010D2
:1018A000080402010804020101020408102040801B
:1018B000010204081020408000000A0B02090C0DF0
:1018C0000E080703040100000000000000000000F3
:1018D0000000000000000000000000000000000008
:1018E00000000000121110000000000000000000C5
:1018F0000000000000000000000000000000302E8A
:1019000030323500302E3100312E30004D6F76658B
:1019100020246D6D003130004D6F7665204178696F
:1019200073004D6F7665202A004D6F76652040006C
:10193000200020001F130F47060F3F140F40140F05
:1019400040230F41131F3733321F2B13F093020F25
:10195000180875F003020F17140219F023020F186C
:101960002251F0A3020F18F174020F1B87F034020A
:101970001F29F00124021F27F021245F24F0504684
:101980001F2175F0233F1B8DF06F176F04F06F2D33
:1019900010F08F2EE45F30C54F33962F37671F3915
:1019A000561F3A461F3B3F453F45300F3B064F3BD6
:1019B000154F3605033F39226F3D7FFD0F17F01F8E
:1019C0000C3F18F00F0A5F19371F0D2F1A371F0D24
:1019D0002F19380F0D2F1A3F172F193616113930BE
:1019E000273F0E3604B695639D36145134233422B6
:1019F00031ADB6242325231433311EB533232523DB
:101A000024332F03361524232522B32F0426153320
:101A10002325232C2F033E242235222C2F042F0094
:101A2000233225322C2F0339122423252327022F7A
:101A30000438132332343235132F0338132423345C
:101A40002343132F04354233335061942F01F01197
:101A50006063A4637F263B3F0D2042002050006F4F
:101A60006B00496E76616C69642065787472756488
:101A700065720A0020686F6D696E672073656E730A
:101A8000697469766974793A200020686F6D696EAF
:101A9000672073656E73697469766974793A20009A
:101AA000207072657761726E20666C616720636C6E
:101AB00065617265640A00207072657761726E20DC
:101AC000666C616720636C65617265640A002074EE
:101AD000656D70657261747572652070726577618D
:101AE000726E207472696767657265643A200020BF
:101AF00074656D706572617475726520707265775A
:101B000061726E207472696767657265643A20005D
:101B10007370726561644379636C650073746561A9
:101B20006C746843686F7000206472697665722017
:101B30006D6F64653A09007370726561644379631F
:101B40006C6500737465616C746843686F70002025
:101B5000647269766572206D6F64653A090020646D
:101B600072697665722063757272656E743A2000D0
:101B7000206472697665722063757272656E743A5C
:101B800020002E0A002028302D31302900207661D7
:101B90006C7565206F7574206F662072616E676565
:101BA00000416476616E6365204B3D0045455052AF
:101BB0004F4D204F4B0A004F66667365747320418A
:101BC00070706C696564004D494E2F4D415820542A
:101BD0006F6F2046617200546F6F206661722066DD
:101BE000726F6D204D494E2F4D41580A0000000084
:101BF00000000000000000000064697300656E00D2
:101C000043290061626C656420286D696E207465EB
:101C10006D702000436F6C64206578747275646524
:101C20007320617265200020466C6F773A20002592
:101C30000A0046523A003F4A206F7574206F6620B2
:101C400072616E67652028302E303120746F20302D
:101C50002E33290A004D31343520533C696E6465BA
:101C6000783E206F7574206F662072616E67652004
:101C700028302D31290A002F2F00417263686950E6
:101C800072696E746572204F46462E004D313133B5
:101C90002053006F666600E316DE16D716D016C214
:101CA0001644454255473A006F6B0025697300257D
:101CB000696D20256973002569682025696D2025D7
:101CC000697300256964202569682025696D2025D0
:101CD00069730025697920256964202569682025B4
:101CE000696D20256973005072696E742074696D86
:101CF000653A20004E6F204D6F76652E0062656755
:101D0000696E004D302053746F70004D3120537454
:101D10006F7000436C69636B20746F20526573753C
:101D20006D652E2E2E0000006B4300006B430000FB
:101D30007A43536C6565702E2E2E00FFFFFF707284
:101D40006F6D70745F00626567696E0050757267D1
:101D5000654D6F72650050617573656400436F6E09
:101D600074696E7565004C6F61642046696C616DC5
:101D7000656E74205400496E736572742066696CD8
:101D8000616D656E7420616E642073656E64204DB4
:101D90003130380A002F2F616374696F6E3A007218
:101DA0006573756D6564004469736D697373005282
:101DB0006573756D696E67004C4F57004849474819
:101DC000004F4B004572726F723A20416C6C2000DC
:101DD00020636F6E6E656374696F6E2E2E2E200009
:101DE00054657374696E6720004C4F57004849472B
:101DF00048004F4B004572726F723A20416C6C2064
:101E00000020636F6E6E656374696F6E2E2E2E20D8
:101E10000054657374696E672000220A00556E6B6A
:101E20006E6F776E20636F6D6D616E643A20220075
:101E3000204500205A0020590020204D39322058DA
:101E40000053746570732070657220756E6974003C
:101E50004572726F722077726974696E6720746F51
:101E600020454550524F4D210A00DB0FC93F45BC6C
:101E7000DA3F8FB30240FCF0274056946140FE4B9E
:101E80009B4084A5D840E0231841346A5641E85964
:101E9000974164DBD5416E271742B4B75542CE1A3D
:101EA0009742C8AED542B5885A43D40684BFA65FD0
:101EB000A7BF7443E0BF10B11AC01C2C58C0E8F68D
:101EC00097C0B849D6C04E4E17C124D355C18024FF
:101ED00097C1A0B5D5C1121A17C244AE55C2781722
:101EE00097C26CACD5C267885AC320746F6F206CE0
:101EF0006F6E6720657874727573696F6E2070728B
:101F00006576656E7465640A0020636F6C64206595
:101F10007874727573696F6E2070726576656E7411
:101F200065640A0020453A00205A3A0020593A00D8
:101F3000583A006F6B0A00526573656E643A200070
:101F4000447269766572207265676973746572732D
:101F50003A0A006F7409006F747077090073326772
:101F60006109007332676209006F6C6109006F6C70
:101F7000620900737473740900667361637469762F
:101F800065007374616C6C67756172640073675F80
:101F9000726573756C7400445256535441545553D2
:101FA00000755374657020636F756E7400537461AF
:101FB0006C6C6775617264207468727300202D7395
:101FC00074617274090068797374657265736973FA
:101FD0000A202D656E640900626C616E6B20746965
:101FE0006D65006F66662074696D6500747269675F
:101FF00067657265640A204F545009004F54207081
:1020000072657761726E005B6D6D2F735D090050B4
:10201000574D207468726573682E00747374657010
:102020000900696E7465727009006D737465707370
:102030000900737465616C746843686F700076732F
:10204000656E7365090050574D207363616C6500C0
:1020500043532061637475616C00486F6C64206346
:10206000757272656E740052756E2063757272655A
:102070006E74004D41582063757272656E74005223
:102080004D532063757272656E74005365742063DE
:10209000757272656E7400456E61626C65640900EC
:1020A000090030780041726368695072696E746526
:1020B000722052656164792E005072696E74696E87
:1020C000672E2E2E005072696E74205061757365F4
:1020D0006400554E4C4F41442046494C414D454EBD
:1020E00054004C4F41442046494C414D454E54000C
:1020F00046494C414D454E54204348414E474500CA
:1021000041425300504C41004C6F6164206D6D00A2
:10211000556E6C6F6164206D6D0046696C2E2044B5
:1021200069612E004F6666004F6E004520696E2083
:102130006D6D5E3300416476616E6365204B004DCA
:10214000333033205531204525692053256900411E
:1021500075746F74756E65202A205049440050498B
:10216000442D44202A005049442D49202A0050493A
:10217000442D50202A002008204661637400200866
:10218000204D6178002008204D696E004D696E2059
:1021900054726176656C205370656564004D696E9C
:1021A0002056656C6F63697479004D61782040201A
:1021B0005370656564004D61782045204163636517
:1021C0006C004D6178204020416363656C0054725F
:1021D0006176656C20416363656C00526574726161
:1021E000637420416363656C00416363656C004008
:1021F0002073746570732F6D6D00416476616E633A
:1022000065642053657474696E6773003F004361B1
:102210006E63656C00496E6974004D343238004954
:102220006E697469616C697A6520454550524F4DFD
:102230000046696C616D656E740054656D70657201
:10224000617475726500544D4320447269766572FD
:10225000730053746570732F6D6D004A756E6374EF
:10226000696F6E2044657600416363656C657261D9
:1022700074696F6E004D6178205370656564202825
:102280006D6D2F73290053657420486F6D65204F65
:1022900066667365747300436F6E66696775726115
:1022A00074696F6E003F0043616E63656C204F621E
:1022B0006A656374004E4F005945530043616E6375
:1022C000656C204F626A656374207B004D61696EA6
:1022D000204D656E7500556E726574726163742071
:1022E0005600556E726574722E206D6D00486F70C9
:1022F000206D6D00526574726163742056005265E2
:102300007472616374206D6D004F6666004F6E00DD
:102310004175746F2D526574726163740042656417
:10232000004E6F7A7A6C650046616E205370656569
:102330006400436F6E66696775726174696F6E00E1
:10234000526573746F72652044656661756C747351
:10235000004C6F61642053657474696E6773005339
:10236000746F72652053657474696E677300507280
:102370006568656174202420436F6E660052657441
:102380007261637400416476616E636564205365B5
:102390007474696E6773004D61696E204D656E756A
:1023A000004D37303220542564004D363030204205
:1023B0003020542564004D373032203B2564004DD9
:1023C00037303120542564004368616E67652046CC
:1023D000696C616D656E740050726568656174202A
:1023E000437573746F6D0050726568656174202465
:1023F000004261636B004D363030423000436F6EF7
:1024000074696E7565005075726765206D6F7265D1
:1024100000524553554D45204F5054494F4E533A65
:10242000005052494E5420504155534544002F000E
:10243000200020204E6F7A7A6C653A20005061723D
:102440006B696E672E2E2E0000005761697420663E
:102450006F720066696C616D656E74206368616E91
:10246000676500746F2073746172740057616974DA
:1024700020666F720066696C616D656E7420756EA2
:102480006C6F616400004E6F7A7A6C6520686561DC
:1024900074696E6700506C6561736520776169745B
:1024A0002E2E2E0000507265737320627574746F47
:1024B0006E00746F2068656174206E6F7A7A6C6547
:1024C0000000496E736572742066696C616D656E9B
:1024D0007400616E64207072657373206275747429
:1024E0006F6E00746F20636F6E74696E7565005750
:1024F00061697420666F720066696C616D656E74E7
:10250000206C6F61640000507265737320427574B3
:10251000746F6E00746F20726573756D65207072D4
:10252000696E7400005761697420666F7220707262
:10253000696E7400746F20726573756D652E2E2E32
:1025400000005761697420666F720066696C616D86
:10255000656E742070757267650000313235003524
:10256000004245443A204550434F53203130304BD0
:102570000052756E617761792057617463683A2003
:102580004F4E004D61782054656D70003237350034
:102590004D696E2054656D7000350045313A204517
:1025A00050434F53203130304B0050535500476556
:1025B0006E657269630050726F746F636F6C003187
:1025C0002E30004261756400313135323030004DBB
:1025D0004B532047454E204C004578747275646516
:1025E00072730031006D61726C696E66772E6F7266
:1025F000670041726368695072696E746572003277
:102600003032332D31322D3039006275676669788A
:102610002D322E312E78004D61726C696E00546837
:1026200065726D6973746F727300426F61726420BA
:10263000496E666F005072696E74657220496E66ED
:102640006F004D61696E204D656E75003F004261FF
:10265000636B0053746F70003F004E4F0059455339
:10266000004368616E67652046696C616D656E74D4
:102670000041626F7574205072696E746572004318
:102680006F6E66696775726174696F6E0054656D0F
:102690007065726174757265004D6F74696F6E005C
:1026A000526573756D65205072696E740043616E7A
:1026B00063656C204F626A6563740054756E6500D3
:1026C00053746F70205072696E7400506175736539
:1026D000205072696E7400496E666F205363726594
:1026E000656E002100486F74656E6420746F6F2002
:1026F000636F6C64004261636B0050726F63656569
:1027000064004D6F7665204578747275646572005B
:102710004D6F74696F6E0044697361626C6520531C
:1027200074657070657273004D3834004175746F54
:1027300020486F6D6500473238004D61696E204D4D
:10274000656E75005072656865617420242042656D
:10275000640050726568656174202420456E6400D1
:1027600054656D7065726174757265000421002195
:10277000436F6F6C646F776E00507265686561744B
:1027800020240046616E20537065656400426564D4
:10279000004E6F7A7A6C65004D61696E204D656EF2
:1027A0007500590058005900580059004F666600DE
:1027B0004F6E005800544D43204472697665727321
:1027C00000537465616C746843686F7020456E6176
:1027D000626C6564005374657070696E67204D6F3C
:1027E00064650053656E736F726C65737320486F18
:1027F0006D696E6700447269766572204375727206
:10280000656E7400416476616E636564205365741F
:1028100074696E6773004261627973746570205ADF
:102820000042616279737465702040004164766192
:102830006E6365204B00466C6F770046616E2053D7
:102840007065656400426564004E6F7A7A6C65005D
:102850005370656564004D61696E204D656E75004D
:10286000486F6D696E67204661696C6564006F70C2
:10287000656E00545249474745524544003A20008E
:102880007A5F6D696E00795F6D696E00785F6D6962
:102890006E005265706F7274696E6720656E647346
:1028A000746F70207374617475730A0020746F6F95
:1028B000206C6F6E6720657874727573696F6E2017
:1028C00070726576656E7465640A0020636F6C646F
:1028D00020657874727573696F6E207072657665A5
:1028E0006E7465640A00486F6D6520257320466923
:1028F000727374005761726E696E673A20486F6D2B
:10290000696E672042756D702044697669736F72D5
:10291000203C20310A000202040000A0400000A078
:1029200040000000404572723A20454550524F4DDC
:1029300020436F7272757074004572723A2045457B
:1029400050524F4D20435243004572723A20454544
:1029500050524F4D2053697A65004572723A2045B6
:102960004550524F4D2056657273696F6E000000DE
:102970006B4300006B4300007A430000000000003E
:1029800000000000000053657474696E6773205383
:10299000746F72656400290A002062797465733B64
:1029A00020637263200053657474696E67732053EB
:1029B000746F726564202800455252004861726449
:1029C000636F6465642044656661756C742053654B
:1029D0007474696E6773204C6F61646564002028AD
:1029E0006D6D290020460020480020204D313435EF
:1029F0002053004D6174657269616C206865617473
:102A0000757020706172616D6574657273005265D6
:102A100074726163742028533C6C656E6774683E01
:102A200020463C66656564726174653E205A3C6C64
:102A30006966743E29005265636F7665722028537B
:102A40003C6C656E6774683E20463C6665656472E2
:102A50006174653E29004175746F2D526574726111
:102A600063742028533C656E61626C653E290020CA
:102A7000204D393036005374657070657220647271
:102A8000697665722063757272656E740020204DE0
:102A9000393134005374616C6C4775617264207411
:102AA00068726573686F6C640020204D353639207C
:102AB0005331002058004472697665722073746542
:102AC0007070696E67206D6F64650020204D39302D
:102AD00030204B004C696E65617220416476616EF6
:102AE00063650020204D3134392043203B20556E52
:102AF00069747320696E2043656C736975730A008D
:102B000054656D706572617475726520556E697477
:102B100073002020473231203B004C696E656172A2
:102B200020556E697473005761726E696E673A0062
:102B3000454550524F4D206461746173697A652038
:102B40006572726F722E0A004572723A20454550C6
:102B5000524F4D2043524300202863616C63756CD3
:102B60006174656429210A0020213D2000454550FB
:102B7000524F4D20435243206D69736D61746368F9
:102B8000202D202873746F726564292000454550FC
:102B9000524F4D20436F72727570740A0020536952
:102BA0007A653A2000496E6465783A200053746F64
:102BB0007265642073657474696E677320726574DE
:102BC00072696576656400290A002062797465730C
:102BD0003B2063726320002073746F7265642073FE
:102BE000657474696E677320726574726965766561
:102BF000642028000000FA430000FA430000A040CF
:102C00000000C8410000A0420000A0420000C843EC
:102C10000000BA42F4010000F4010000640000006A
:102C200088130000204D61726C696E3D5638392959
:102C30000A00454550524F4D2076657273696F6E9C
:102C4000206D69736D617463682028454550524F4B
:102C50004D3D0024F4D43050C38D20C3A2411782CF
:102C60008B7011127A900D826CDA0AA861E108C7A4
:102C7000586607615142061F4B5E05C145A6041BFD
:102C8000411204093D9703723931034136DB026674
:102C9000339202D4305302812E1D02642CEE017651
:102CA0002AC501B128A101102781018F2564012BBC
:102CB000244A01E1223401AD2120018D200C018143
:102CC0001FFC00851EED00981DDF00B91CD200E737
:102CD0001BC700201BBB00651AB200B319A9000A6C
:102CE00019A0006A189800D217920040178A00B6FF
:102CF00016840032167E00B41579003B157400C7A7
:102D0000146F0058146A00EE1366008813620026E0
:102D1000135E00C8125B006D12570016125500C1F9
:102D200011510070114E0022114C00D61049008D37
:102D30001046004710450002104200C00F400080BE
:102D40000F3E00420F3C00060F3A00CC0E390093B4
:102D50000E37005C0E3500270E3400F30D3200C133
:102D60000D3100900D2F00610D2F00320D2D00054B
:102D70000D2C00D90C2A00AF0C2A00850C28005D10
:102D80000C2800350C27000E0C2500E90B2500C48B
:102D90000B2400A00B23007D0B22005B0B21003ACB
:102DA0000B2100190B2000F90A1F00DA0A1F00BBD3
:102DB0000A1E009D0A1D00800A1C00640A1C0048AF
:102DC0000A1C002C0A1B00110A1A00F7091A00DD60
:102DD000091900C4091900AB091800930918007BF0
:102DE000091700640917004D09170036091600205D
:102DF0000915000B091500F6081500E1081500CCAF
:102E0000081400B8081400A4081300910813007EE9
:102E10000813006B08120059081200470812003509
:102E2000081200230811001208110001081000F117
:102E3000071100E0071000D0071000C0070F00B115
:102E4000071000A1070F0092070F0083070F0074FF
:102E5000070E0066070E0058070E004A070E003CDA
:102E6000070E002E070D0021070D0014070D0007A7
:102E7000070D00FA060D00ED060C00E1060D00D46A
:102E8000060C00C8060C00BC060C00B0060B00A522
:102E9000060C0099060B008E060B0083060B0078CB
:102EA000060B006D060B0062060B0057060A004D6C
:102EB000060A0043060B0038060A002E060A002404
:102EC0000609001B060A0011060A0007060900FE93
:102ED000050A00F4050900EB050900E2050900D91F
:102EE000050900D0050900C7050800BF050900B69F
:102EF000050900AD050800A50508009D0508009519
:102F00000509008C050800840508007C050700758C
:102F10000508006D050800650507005E05080056F8
:102F20000507004F05080047050700400507003961
:102F3000050700320507002B050700240507001DC3
:102F4000050700160507000F050600090507000222
:102F5000050600FC040700F5040600EF040700E87E
:102F6000040600E2040600DC040600D6040600D0D5
:102F7000040700C9040500C4040600BE040600B826
:102F8000040600B2040600AC040600A6040500A175
:102F90000406009B04050096040600900405008BBF
:102FA00004060085040500800405007B0405007606
:102FB000040600700405006B04050066040500614A
:102FC0000405005C04050057040500520405004D8B
:102FD00004050048040400440405003F0405003AC9
:102FE00004040036040500310405002C0404002804
:102FF000040500230404001F0405001A040400163D
:10300000040400120405000D040400090404000572
:1030100004040001040500FC030400F8030400F4A8
:10302000030400F0030400EC030400E8030400E4DC
:10303000030400E0030400DC030400D8030400D40C
:10304000030300D1030400CD030400C9030400C539
:103050000304000000000000000000000000000069
:103060000000000000000000000000D1036D6403B8
:10307000570D0347C6023B8B023259022B2E022505
:10308000090221E8011CCC011AB201179B01148727
:10309000011374011163010F54010E46010D390132
:1030A0000D2C010B21010A17010A0D010904010869
:1030B000FC0008F40007ED0007E60007DF0006D972
:1030C0000006D30005CE0006C80005C30004BF00FB
:1030D00005BA0004B60004B20004AE0004AA00045D
:1030E000A60003A300049F00039C0003990003961D
:1030F00000039300029100038E00028C00038900FC
:10310000028700038400028200028000027E000227
:103110007C00027A000278000276000175000273DA
:1031200000027100017000026E00016D00026B0070
:10313000016A000268000167000265000164000185
:103140006300016200026000015F00015E00015D3A
:1031500000015C00015B00015A00015900015800A8
:1031600001570001560001550001540001530001B0
:103170005200015100005100015000014F00014E6A
:1031800000014D00004D00014C00014B00014A00C0
:10319000004A0001490001480000480001470001C1
:1031A000460000460001450000450001440001437F
:1031B00000004300014200004200014100004100C4
:1031C000014000004000013F00003F00013E0000C0
:1031D0003E00013D00003D00013C00003C00013B81
:1031E00000003B00013A00003A00013900003900BC
:1031F00000390001380000380001370000370000B6
:103200003700013600003600003600013500003579
:1032100000013400003400003400013300003300AA
:1032200000330001320000320000320001310000A2
:10323000310000310000310001300000300000306A
:1032400000012F00002F00002F00002F00012E0092
:10325000002E00002E00012D00002D00002D00008A
:103260002D00012C00002C00002C00002C00012B54
:1032700000002B00002B00002B00012A00002A0078
:10328000002A00002A00002A00012900002900006D
:10329000290000290001280000280000280000283B
:1032A0000000280001270000270000270000270059
:1032B000002700012600002600002600002600004E
:1032C000260000260001250000250000250000251D
:1032D0000000250000250001240000240000240037
:1032E000002400002400002400012300002300002B
:1032F00023000023000023000023000122000022FD
:103300000000220000220000220000220000220013
:103310000121000021000021000021000021000007
:1033200021000021000120000020000020000020DA
:1033300000002000002000002000002000011F00ED
:10334000001F00001F00001F00001F00001F0000E2
:103350001F000020436F756E7420583A0042656468
:1033600000453100626564002C2073797374656DCB
:103370002073746F70706564212048656174657294
:103380005F49443A20004572723A204D41585445F5
:103390004D50004D415854454D5020747269676737
:1033A000657265640048656174696E67204661698D
:1033B0006C65640048656174696E67206661696C5C
:1033C0006564004D3131322053687574646F776ED7
:1033D000004572723A204D494E54454D50004D49BA
:1033E0004E54454D5020747269676765726564007C
:1033F000544845524D414C2052554E415741590079
:10340000546865726D616C2052756E6177617900E8
:10341000202F0020403A0020573A000000200023CF
:1034200000260029002C002F0032000001000003BC
:1034300001060109016D61726C696E66772E6F720B
:1034400067006275676669782D322E312E78001F0D
:10345000FFFFFFFFFFFF600000000001FF400000D2
:10346000000000FF8000000000007F83CF00000C00
:10347000303F87FF80000C301F867980000C000FE2
:103480008C30C7838C30E78C30CFC7CC31F38C3095
:10349000DCECEC33B98C30D86C6C33198C30D06CDC
:1034A0000C33198C30D86C0C33198C30DC6C0E3B1F
:1034B000198C30CF7C079F198C30C77C038F194043
:1034C000000000000002600000000000061FFFFF77
:1034D000FFFFFFF8544D4320434F4E4E45435449A0
:1034E0004F4E204552524F52002020506C616E6E5C
:1034F000657242756666657242797465733A20003A
:103500002046726565204D656D6F72793A20002006
:10351000436F6D70696C65643A204465632020399F
:1035200020323032330A00204C61737420557064AD
:10353000617465643A20323032332D31322D3039A6
:10354000207C20417574686F723A20285061636F47
:10355000636120546563682C20524A290A004D613A
:10356000726C696E206275676669782D322E312E15
:10357000780A0020536F6674776172652052657314
:1035800065740A00205761746368646F6720526530
:103590007365740A002042726F776E206F75742015
:1035A00052657365740A002045787465726E616CAB
:1035B0002052657365740A00506F77657255700A02
:1035C0000073746172740A00456E6473746F707373
:1035D00000255320256320256320256320256300D3
:1035E000205A3A0020593A0020583A00656E647318
:1035F000746F7073206869743A200000D900112438
:103600001FBECFEFD1E2DEBFCDBF00E00CBF84B75D
:103610008093881114BE0FB6F894A895809160002D
:10362000886180936000109260000FBE13E0A0E0FC
:10363000B2E0EAEAF5E402E00BBF02C007900D92A7
:10364000AE39B107D9F721E1AEE9B3E001C01D926F
:10365000A838B207E1F71AE1CFEFDAE100E006C0DF
:1036600021970109802FFE010F94431ECE3FD10701
:1036700080E00807A9F70F941D0C0D94D3220C9439
:103680000000FC01A081B1811C92A281B3818C91C8
:103690008F5F8C930280F381E02D90818CE0989F66
:1036A000800D1124EDE0F0E113AE84AF0895119880
:1036B00000C09091020187FD909591709093000158
:1036C000119A00C000C0119800C09091020186FDBF
:1036D0009095917090930001119A00C000C01198CC
:1036E00000C09091020185FD90959170909300012A
:1036F000119A00C000C0119800C09091020184FD91
:103700009095917090930001119A00C000C011989B
:1037100000C09091020183FD9095917090930001FB
:10372000119A00C000C0119800C09091020182FD62
:103730009095917090930001119A00C000C011986B
:1037400000C09091020181FD9095917090930001CD
:10375000119A00C000C0119800C0809102018170D0
:1037600080930001119A00C000C00895089590E070
:1037700080E00895CF93DF93C0916F05D0917005DD
:1037800081E0CE31D105E4F020E030E040E05FE3BD
:1037900060916B0570916C0580916D0590916E053F
:1037A0000F94701E0F94B41F6C1B7D0B77FF03C02A
:1037B00071956195710981E0633071050CF080E0CD
:1037C000DF91CF91089590E080E0089520914B1013
:1037D000833021F425FD0CC024FD0CC030E0A9018C
:1037E00002C0559547958A95E2F7CA018170089500
:1037F00081E0089580E00895CF92DF92EF92FF92EA
:103800000F931F93CF93DF9300D000D01F921F928E
:10381000CDB7DEB7DC01ED91FC910084F185E02DA0
:103820001995AB01BC01072F1127222733274983A4
:103830005A836B837C838D8102FB80F901FB81F9C4
:103840008D8368017901B8E1CB22DD24EE24FF24C9
:1038500081E0CD28CE28CF2809F480E09D8180FB2F
:1038600092F900FB94F956FB95F907FB96F907FBD3
:1038700097F99058862F8F71FA01F370F887EF83CC
:1038800029813A814B815C81692F782F8E2F988511
:1038900028960FB6F894DEBF0FBECDBFDF91CF9153
:1038A0001F910F91FF90EF90DF90CF900895CF93ED
:1038B000DF93C0916F05D0917005209729F1609139
:1038C0006B0570916C0580916D0590916E050F945C
:1038D000B41F6E5F7F4F24976C177D07ACF4709315
:1038E000A4106093A3100E941582605A75418F4FF7
:1038F0009F4F6093A5107093A6108093A71090938C
:10390000A810DF91CF9108951092A5101092A610E3
:103910001092A7101092A810F4CFFC010190002083
:10392000E9F79F0121503109281B390B2C33310550
:1039300040F4FC01E20FF31F60832B33310509F0E3
:1039400011820895BF92CF92DF92EF92FF920F9370
:103950001F93CF93DF936B01E9014A3009F4DFC075
:10396000453109F08AC0DB011296ED91FC9112817C
:10397000C681D78180910201809582708093000179
:1039800000C0000086E290E00197F0F7012F029559
:10399000007F20E1B22EB10E88EF89DE00C000006A
:1039A00086E290E00197F0F7103208F0A5C0812F71
:1039B000807780687CDE802F7ADE00C0000086E29F
:1039C00090E00197F0F780E872DE80E070DE00C0E2
:1039D000000086E290E00197F0F78AEF68DE00C011
:1039E000000086E290E00197F0F77E01B0E1EB0E77
:1039F000F11C8881807F5BDE89918295807F57DE14
:103A0000CE15DF05B1F700C0000086E290E0019717
:103A1000F0F71F5F005F1B11BFCF80910201827022
:103A200080930001D6011296ED91FC9180819281E4
:103A3000980F92832181921708F0EDC194819F5FC6
:103A400094839381890F821710F08FEF820F838305
:103A5000458150E0440F551F70E060E086819781FA
:103A60000F94712281E0DF91CF911F910F91FF9010
:103A7000EF90DF90CF90BF900895FB0102811381FA
:103A8000423309F4CAC108F4D2C1463409F4BFC1B3
:103A9000473409F4C7C14B3329F789812B81D801F9
:103AA00012966C91129713964C91213009F404C22E
:103AB000233009F0E5C138EF380F582F91E0431754
:103AC00008F490E041E0531708F040E031E0561769
:103AD00008F430E0592F542B352319F4942309F4BA
:103AE000C1CFFA8030E0F901ED54FD4FD08021556F
:103AF0003D4FF901E080DDC180EE810F8068807F5D
:103B0000D6DD812F8295807FD2DD00C0000086E265
:103B100090E00197F0F780E8CADD80E857CF809108
:103B20000101826080930101809102018270809383
:103B30000001809101018160809301018091020167
:103B4000817080930001099A119A809102018095F9
:103B500082708093000100C0000086E290E001972F
:103B6000F0F788E790E0CEE9DFE0FE013197F1F76A
:103B70000197D9F788EF9BDD00C0000086E290E056
:103B80000197F0F780E293DD80E091DD00C0000056
:103B900086E290E00197F0F780E089DD80E887DD3C
:103BA00000C0000086E290E00197F0F780E07FDD42
:103BB00080E17DDD00C0000086E290E00197F0F733
:103BC000CE010197F1F7CE010197F1F7CE010197F0
:103BD000F1F7CE010197F1F7CE010197F1F7CE0190
:103BE0000197F1F7CE010197F1F7CE010197F1F7B7
:103BF000CE010197F1F7CE010197F1F7CE010197C0
:103C0000F1F7CE010197F1F7CE010197F1F7CE015F
:103C10000197F1F72197F1F780E249DD80E447DD74
:103C200000C0000086E290E00197F0F780E23FDDFF
:103C300080E63DDD00C0000086E290E00197F0F7ED
:103C4000D0E0C0E08C2F8077806831DD8D2F2FDDB4
:103C500000C0000086E290E00197F0F780E827DDE1
:103C600080E025DD00C0000086E290E00197F0F7DB
:103C70008AEF1DDD00C0000086E290E00197F0F7BA
:103C800090E2119800C08091020181708093000140
:103C9000119A00C000C0119800C08091020181708B
:103CA00080930001119A00C000C0119800C080915B
:103CB0000201817080930001119A00C000C0119828
:103CC00000C080910201817080930001119A00C0B0
:103CD00000C0119800C080910201817080930001A2
:103CE000119A00C000C0119800C08091020181703B
:103CF00080930001119A00C000C0119800C080910B
:103D00000201817080930001119A00C000C01198D7
:103D100000C080910201817080930001119A00C05F
:103D200000C0119800C08091020181708093000151
:103D3000119A00C000C0119800C0809102018170EA
:103D400080930001119A00C000C0119800C08091BA
:103D50000201817080930001119A00C000C0119887
:103D600000C080910201817080930001119A00C00F
:103D700000C0119800C08091020181708093000101
:103D8000119A00C000C0119800C08091020181709A
:103D900080930001119A00C000C0119800C080916A
:103DA0000201817080930001119A00C000C0119837
:103DB00000C080910201817080930001119A00C0BF
:103DC00000C000C00000E6E2F0E03197F0F791504B
:103DD00009F057CF88EF6BDC00C0000086E290E06E
:103DE0000197F0F7CF5FD05FC03209F02BCF80E0B2
:103DF0005EDC80EC5CDC00C0000086E290E00197B5
:103E0000F0F7809102018270809300012BCEF801BF
:103E10008581888327CE80E026CEB901C8010E9423
:103E200046E420CED80111968C9188831BCE443174
:103E300091F0473109F016CE1882D80112968C9174
:103E40001297898315968C91159781508A831396C2
:103E50008C918B8307CED80115964C91159750E025
:103E6000440F551F70E060E016968D919C910F9461
:103E70007122F80112828081815083831482F2CDF5
:103E8000481708F4EFCD861708F4ECCDFA80E12C42
:103E9000D12C243070F426CEBE01C8010E9446E425
:103EA000898198819D0D98838E0D8983FF0C09F47B
:103EB000D9CDF7FEF6CFF0CF58E0580F382FFECD12
:103EC000EF92FF920F931F93CF93DF93EC018B013F
:103ED0007A018A859B858617970731F088819981B9
:103EE0000E9402E51B870A87B701888199810E9499
:103EF0007E7D2E813F81820F932F911D9F838E8324
:103F000090E080E0DF91CF911F910F91FF90EF90B3
:103F100008959F92AF92BF92CF92DF92EF92FF925D
:103F20000F931F93CF93DF93EC018B01942EA52E5B
:103F30008A859B858617970731F0888199810E9431
:103F400002E51B870A8788859985019649F5BC801B
:103F50000A818E81080FC880D980D6015596ED91CF
:103F6000FC91C6011995B80EE92CFA2C10E0F70166
:103F700021917F01211127C08E819F81810F911D89
:103F80009F838E8390E080E0DF91CF911F910F910E
:103F9000FF90EF90DF90CF90BF90AF909F900895EB
:103FA0000E811F81692D7A2D888199810E947E7DE5
:103FB000800F912F911D288539852817390738F6EC
:103FC00081E090E0E1CF4B2D602FC6010E9438E6E2
:103FD000080F180FCCCFDF92EF92FF920F931F9331
:103FE000CF93DF93EC01D62E1CAD0BAD7C0184E0AA
:103FF000E80EF11CE98DFA8DC7011995412F480F84
:104000002D2D602FC7010E9438E69BAD890F8BAF25
:1040100081E090E0DF91CF911F910F91FF90EF90A1
:10402000DF9008952091E804222309F459C0E22F7B
:10403000F0E060E2243630F0CF0164E670E00F94E7
:10404000141E605D6093850580E22A3058F02AE0F6
:1040500030E0CF01B9010F94141ECB01B9010F94C8
:10406000141E805D80938605CF016AE070E00F9496
:10407000141E805D8093870544E050E060E270E0AC
:1040800080E090E10F9471221092041080E090E1A2
:10409000FC0101900020E9F7CF01815090418C3064
:1040A000910550F44DE050E0481B590B65E875E070
:1040B0008050904F0F94D71680E090E1FC01019062
:1040C0000020E9F7CF01815090418C30910540F4F8
:1040D000FC01E050F04F25E220830B9709F011829C
:1040E0000895CF92DF92EF92FF920F931F93CF9399
:1040F000DF93CDB7DEB72C970FB6F894DEBF0FBEB7
:10410000CDBFF0904810E09049102091E2042111B9
:104110001DC047EC5FE06E2D8F2D0E94477490E02C
:1041200080E0F80EF0924810E092491099272C9602
:104130000FB6F894DEBF0FBECDBFDF91CF911F91B8
:104140000F91FF90EF90DF90CF900895C0901510E1
:10415000D090161021E130E13A8329832F2D30E0F1
:104160003C832B832E2D30E03E832D8318861F82C7
:104170002FEF3FEF3A8729871C861B8609E81FE14E
:104180009E012F5F3F4F41E251EABC01C6010E94F0
:104190000A74B60181E190E10E9402E58F81988561
:1041A000C0CFCF92DF92EF92FF920F931F93CF93E6
:1041B000DF9300D000D000D01F921F92CDB7DEB7A2
:1041C0008C01D42EC52E790143E350E00F9488165C
:1041D000CF92DF9286E893E09F938F93CE01019672
:1041E0006C019F938F930F94A322F80101900020FC
:1041F000E9F7CF010197801B910B0F900F900F9063
:104200000F900F900F908233910548F443E350E0F4
:10421000481B590BB601800F911F0F94D716F80158
:1042200001900020E9F7CF010197801B910B8233A9
:10423000910548F443E350E0481B590BB701800F48
:10424000911F0F9488162B960FB6F894DEBF0FBE01
:10425000CDBFDF91CF911F910F91FF90EF90DF9035
:10426000CF9008953F924F925F926F927F928F927C
:104270009F92AF92BF92CF92DF92EF92FF920F93F5
:104280001F93CF93DF93162F072F342EFC018080CE
:104290009180A280B380C501B40120E13EE040E0FE
:1042A00050E00F94B81DF22EE32EC22FD32F8CE3D3
:1042B000482E512C612C712CC501B401A30192012F
:1042C0000F94B81DD62EC72ECA01B901A3019201C1
:1042D0000F94B81D3320C9F17F936F93CE0168E12D
:1042E00070E00F94001E9F938F93C501B40120E8E6
:1042F00031E541E050E00F94B81D3F932F938EECD1
:1043000096E09F938F930F931F930F942717812FFE
:10431000902F0F949C16EDB7FEB73A960FB6F8940F
:10432000FEBF0FBEEDBFDF91CF911F910F91FF90A8
:10433000EF90DF90CF90BF90AF909F908F907F9045
:104340006F905F904F903F9008952097B9F4CF926F
:10435000DF927F936F9382EC96E09F938F930F93FE
:104360001F930F9427172DB73EB7285F3F4F0FB607
:10437000F8943EBF0FBE2DBF85E0D5CFC436D10522
:10438000A8F47F936F93EF92FF9286EB96E09F9352
:104390008F930F931F930F9427178DB79EB708968F
:1043A0000FB6F8949EBF0FBE8DBFE6CF7F936F937D
:1043B000EF92FF928CEA96E09F938F930F931F9357
:1043C0000F942717EDB7FEB738960FB6F894FEBFD7
:1043D0000FBEEDBF86E0A7CFEF92FF920F931F9322
:1043E000CF93DF93CDB7DEB72E970FB6F894DEBF2D
:1043F0000FBECDBF80916C09813009F067C00E946B
:10440000E7B36B877C878D879E8741E06038714575
:104410008140910508F440E0BE016F5F7F4FCE01FF
:104420000B9620DF2AE0281B85E480930010109271
:10443000011080E090E1FC0101900020E9F7CF013C
:10444000815090418C30910540F4FC01E050F04FD8
:104450003AE330830B9709F0118200E010E1F80194
:1044600001900020E9F78F010150104130E08CE00D
:1044700090E07C01E01AF10A2E153F050CF4790159
:104480001E141F0464F40050104FA70160E270E096
:10449000C8010F9471220E0D1F1DF801108280E0DB
:1044A00090E1FC0101900020E9F7CF01815090419B
:1044B0008C30910558F44DE050E0481B590BBE017B
:1044C0006F5F7F4F8050904F0F94D7162E960FB688
:1044D000F894DEBF0FBECDBFDF91CF911F910F913A
:1044E000FF90EF900895CF93DF93CDB7DEB720E232
:1044F000488559856F818E810E94AE7CDF91CF9176
:104500000895282F1092A10580918C0590918D051A
:10451000A0918E05B0918F05B7FF08C010928C0551
:1045200010928D0510928E0510928F0580915D0579
:10453000882331F080918C058093780510929C053A
:10454000809172051816FCF4082E000C990B821B42
:10455000910920917805022E000C330B281739079A
:1045600094F097FF02C090E080E080937805092ED8
:10457000000CAA0BBB0B80938C0590938D05A09328
:104580008E05B0938F05809178056623A9F09091F0
:104590007905891714F48093790520917905022E05
:1045A000000C330B2C5F3F4F482F082E000C550B8F
:1045B000241735071CF48450809379050895E09101
:1045C0005605E63028F581E08E0F80935605409120
:1045D0008C0550918D0560918E0570918F0520910D
:1045E0007905909172058091860739E0E39FF0018B
:1045F0001124E15EFA4FA091FE0FB091FF0FB1833D
:10460000A083428353836483758326839783808743
:10461000089563E972E084E690E00E9418CE70E0AD
:1046200060E08AE090E00E9418CE6AEB72E084E6D7
:1046300090E00C9418CE0E94B5FEEBCF8111E9CF2B
:1046400068E270E080E991E00C9418CE0F94CE06F9
:10465000F5CF0E94E8FFF2CFCF93DF93CDB7DEB75F
:104660008E8187FF03C010926B0980E090916B09E7
:10467000282F082E000C330B9217130609F09CF418
:1046800080936B099E01275F3F4F4F81588564E5FA
:1046900070E089EA9FE00F94561710926A09109211
:1046A000690910926809DF91CF910895CF93DF9344
:1046B000CDB7DEB7A1970FB6F894DEBF0FBECDBF62
:1046C00067FF03C010926B0960E050916B09262FC1
:1046D000062E000C330B5217130609F024F56093D5
:1046E0006B0919821F8E442339F14FE150E0BC0160
:1046F000CE0101960F94881645E550E0BE016F5F2C
:104700007F4F89EA9FE00F94D71684E590E099A344
:1047100088A3CE0180960E94D47410926A091092E8
:10472000690910926809A1960FB6F894DEBF0FBE12
:10473000CDBFDF91CF9108954FE150E0BC01CE0194
:1047400001960F94D716D8CF0F931F930E9415820E
:10475000009113051091140520911505309116054F
:10476000601B710B820B930B97FD0EC086B186FB0D
:10477000882780F991E08927349B8260079B02C0DB
:10478000329B846080931205809112058170909114
:10479000120591FD826090911105981771F081309A
:1047A00009F138F0823061F0833091F08093110587
:1047B00004C0913089F0923039F01F910F91089523
:1047C000992351F09330C9F790911005915007C08B
:1047D0009130D1F3923089F7909110059F5F9093BB
:1047E0001005E4CF992381F3933039F7F5CFCF92B9
:1047F000DF92EF92FF92CF93C82F0E9415826B0138
:104800007C0124EA30E74DE75FE360914802709154
:10481000490280914A0290914B020F948E1787FDB6
:1048200018C08AEF90E0A0E0B0E08C0D9D1DAE1D99
:10483000BF1D8093FC049093FD04A093FE04B093ED
:10484000FF04C0931002CF91FF90EF90DF90CF90C4
:10485000089580E090E0DC01E8CF8F3010F48F5FA6
:1048600008958F500895CF938091E304811154C02F
:10487000109248101092491010924A10109216107F
:1048800010921510109218101092171010921A1002
:1048900081E08093191082E280931B101092201007
:1048A00010921F10E4E3F0E122E430E18FEF8193F6
:1048B0002E173F07E1F7C1E0C093311025ED3FED22
:1048C0003093271020932610C0932810109229109F
:1048D00010922A1090E490932B1010922C1024ED3B
:1048E0003FED309343102093421029E032E03093A3
:1048F00014102093131097E19093381091E1909346
:10490000391090E1909336108093351080933410D5
:104910000E946E74C093E30481E08093E20483E21A
:1049200090E190936E0980936D0910927009109236
:104930006F093E98469A3C98449A3A98429A0F9842
:10494000179A02DF10921005CF910C94F074CF9259
:10495000DF92EF92FF920F931F930E9415820091B6
:10496000DE041091DF042091E0043091E1046B013A
:104970007C01C01AD10AE20AF30A9701860137FDC9
:1049800011C02091DD0420952093DD046A547C4FF2
:104990008F4F9F4F6093DE047093DF048093E00499
:1049A0009093E10481E09091DD04911101C080E0D9
:1049B0001F910F91FF90EF90DF90CF9008952F926D
:1049C0003F924F925F926F927F928F929F92AF929F
:1049D000BF92CF92DF92EF92FF920F931F93CF93EC
:1049E000DF9300D000D0CDB7DEB76C015B01742E31
:1049F00029013E2C6E2C2EEF95E1892E90E1992E07
:104A0000421304C029E1822E20E1922E85E4282E53
:104A1000872D072C000C990BFC01ED52FD4FFE83F6
:104A2000ED8316140CF07CC0AE014F5F5F4F61E266
:104A300071EAC5010E9460CE7C0149815A816B8177
:104A40007C81411551056105710509F469C04B3739
:104A500051056105710509F4DBC04E37510561054B
:104A6000710509F4D5C04A3251056105710509F097
:104A700072C077FE17C0462D062C000C550B4F5FF9
:104A80005F4FB401C6010F948816C6010E9452CE32
:104A9000681AF60101900020E9F79F0121503109C1
:104AA00059012DC05601FFEFAF1ABF0AF60120824F
:104AB0006A94662009F46DC0650181E04B375105A9
:104AC0006105710509F480E0870D8A3084F0560194
:104AD000FFEFAF1ABF0A6A946AE00F94F31D805D7E
:104AE000F6018083662009F454C0892F65015601C0
:104AF000FFEFAF1ABF0A805DF60180836A94161437
:104B00000CF047C0462D062C000C550B4F5F5F4F35
:104B1000B701C5010F948816C5010E9452CE681ACC
:104B2000832D861926960FB6F894DEBF0FBECDBF33
:104B3000DF91CF911F910F91FF90EF90DF90CF9079
:104B4000BF90AF909F908F907F906F905F904F90AD
:104B50003F902F900895443251056105710509F089
:104B60003EC001151105C1F0462D062C000C550B59
:104B70004F5F5F4FB801C6010F948816C6010E94AF
:104B800052CE681AF60101900020E9F7CF01019793
:104B90005C016501570145CF4114510449F4D60128
:104BA000F501EE16FF0669F184918D933196F9CFE8
:104BB000462D062C000C550B4F5F5F4FB201C6010E
:104BC0000F94D716C6010E9452CE681AF6010190C2
:104BD0000020E9F79F01215031095901DACF403413
:104BE000510561057105D9F656013FEFA31AB30AC5
:104BF000ED81FE818081F6018083F50110826A9447
:104C0000C8CF97012A193B095901AC0CBD1CF5CF3F
:104C100077FE53CF30CF20E030E040E05FE360919B
:104C2000890970918A0980918B0990918C090F9460
:104C3000701E0F94B41FCB0108959CE0899F802DB6
:104C4000112491E0980F9093DC042CE0280F20931E
:104C5000A20530E02E5F3F4F4091451042171306EA
:104C600019F014F080E00895209147109217D0F7C2
:104C7000662341F08E5F0E94957C8091A2058E5F35
:104C80000E94957C8091A20590914510891750F360
:104C9000209147109091DC04291720F310924810BE
:104CA0008093491081E00895DC01ED91FC91CB01E6
:104CB000969587950190F081E02DE80FF91F80818E
:104CC00060FF02C08F7008958295FCCF2091DB04B5
:104CD000022E000C330B8217130641F08093DB0485
:104CE00066E971E181E190E10C9402E50895EF92AB
:104CF000FF920F931F93CF93DF93CDB7DEB72C971F
:104D00000FB6F894DEBF0FBECDBFFC01608171818C
:104D1000828193816F3F71058105910509F0B8F497
:104D20008DE090E158D9E0911510F0911610319670
:104D3000849190E02C960FB6F894DEBF0FBECDBFE5
:104D4000DF91CF911F910F91FF90EF9008951091F7
:104D50004810009149102091E20421110FC047EE44
:104D60005FE0602F812F0E94477490E080E0180F71
:104D700010934810009349109927DCCFE09015104C
:104D8000F090161021E130E13A832983212F30E0A1
:104D90003C832B83202F30E03E832D8318861F8297
:104DA0002FEF3FEF3A8729871C861B8629E83FE1D2
:104DB000AE014F5F5F4FBF01C7010E944573B7014E
:104DC00081E190E10E9402E58F819885D0CF4F92DA
:104DD0005F926F927F928F929F92AF92BF92CF928B
:104DE000DF92EF92FF920F931F93CF93DF9300D048
:104DF00000D01F921F92CDB7DEB76C015A01490156
:104E0000FB0190818CE0989F800D1124982FF60172
:104E10002081822F880F820F880F809348109093F3
:104E200049104115510509F4A0C0DA82C9827C837A
:104E30006B83011122C0AE014B5F5F4FB401C5010E
:104E40000E9460CE5C018D819E81AF81B885892BE7
:104E50008A2B8B2B09F489C0CE01059648DFF60119
:104E600080818F5F8083853130F3CE0101960E946F
:104E7000411BE1CF10E075010DC07A0110E00AC0BE
:104E8000E114F104B9F38FEFE81AF80A10E0E11425
:104E9000F10489F3AE014B5F5F4FB401C5010E947D
:104EA00060CE5C014D805E806F8078844114510437
:104EB00061047104E9F0F0E24F16510461047104D9
:104EC000A9F0D301C2018D97A109B1090297A105EB
:104ED000B10570F04BE2441651046104710441F0D5
:104EE0005AE04516510461047104E9F5112341F2B9
:104EF000F6018081482F410F5527551F4631510536
:104F000034F0853020F0CE0101960E94411B81E0F3
:104F1000411451046104710409F480E0180FF60192
:104F20008081810F8083112369F01150AE014B5FA6
:104F30005F4FB401C7010E9460CE7C01CE0105968F
:104F4000D6DEF1CF411451046104710471F0FAE02E
:104F50004F1651046104710409F08CCFCE01019603
:104F60000E94411B88CF1F5F92CF28960FB6F894FE
:104F7000DEBF0FBECDBFDF91CF911F910F91FF908C
:104F8000EF90DF90CF90BF90AF909F908F907F90E9
:104F90006F905F904F900895EDE0F0E183AF64AFC4
:104FA000CA019FC89EC8CF93DF93FC0125AD211194
:104FB00004C021E025AF0E946E74C0911310D091FF
:104FC0001410E0914210F091431082E01995E091A5
:104FD0004210F091431081E0199530E020E044E167
:104FE000BE0181E190E10E9480E424E430E147E1E8
:104FF000BE0181E190E10E9480E4E0914210F091D5
:10500000431080E0DF91CF911994CF92DF92EF921D
:10501000FF920F931F93CF93DF93CDB7DEB72C97FB
:105020000FB6F894DEBF0FBECDBFF0904810E090F1
:1050300049102091E20421111DC047EA5FE06E2D66
:105040008F2D0E94477490E080E0F80EF092481097
:10505000E092491099272C960FB6F894DEBF0FBE48
:10506000CDBFDF91CF911F910F91FF90EF90DF9017
:10507000CF900895C0901510D090161021E130E126
:105080003A8329832F2D30E03C832B832E2D30E073
:105090003E832D8318861F827A8769871C861B862C
:1050A00009E81FE19E012F5F3F4F44E251EABC0136
:1050B000C6010E940A74B60181E190E10E9402E5F6
:1050C0008F819885C2CF2F923F924F925F926F92BD
:1050D0007F928F929F92AF92BF92CF92DF92EF9288
:1050E000FF920F931F93CF93DF93CDB7DEB72B01C2
:1050F000142F6901ADB6BEB642FB662760F99DDD8F
:10510000882309F4C4C0212F2170722E1270612EE1
:10511000C2010E9444CE36E0839FC00111249C014D
:105120002D5F3F4F4DB75EB7421B530B0FB6F89440
:105130005EBF0FBE4DBFEDB7FEB731964F01209158
:10514000750230917602EDB7FEB732832183339634
:1051500011920197E8F7F12CE12C4114510499F0D8
:105160000091A6051091A7052091A4053091A505F1
:1051700085E1E82E4091A305B201C40120DC36E0B0
:10518000839F70011124C114D10401F1C6010E9452
:1051900052CE582E8823D1F0711042C0F601808182
:1051A000222423948A3351F0212CC6016C010196EC
:1051B000F6012081203271F45A94F8CFFFEFCF1A14
:1051C000DF0A5A9426E0E20EF11CEFCF212C512C7D
:1051D000711002C0662031F180E890E08E199F09BD
:1051E000F52D26E0F20280199109112466E070E0A5
:1051F0000F94001E362E7720B1F0462E67FF03C0B5
:1052000044244394460E459400E810E014146CF4D2
:105210008DE090E10E947120081B190B4A94F6CF93
:10522000212CDACF312C00E810E0EF2819F0B8017A
:10523000C401EBDE5520F1F06620B9F0711015C005
:105240000730110590F0222031F08BE090E10E94B0
:105250007120081B190B131444F489E090E10E949B
:105260007120081B190B3A94F6CFB801C601CDDEA8
:10527000081B190B0730110528F087E090E10E9408
:105280007120F6CF0FB6F894BEBE0FBEADBE0FB6FE
:10529000F894BEBE0FBEADBEDF91CF911F910F91AE
:1052A000FF90EF90DF90CF90BF90AF909F908F9046
:1052B0007F906F905F904F903F902F9008958091D6
:1052C0001E02882349F060915B0570915C0530E017
:1052D00020E041E081E0F7CE08956FEF7FEF95CEBB
:1052E0006F927F928F929F92AF92BF92CF92DF92F6
:1052F000EF92FF920F931F93CF93DF93CDB7DEB75B
:1053000067970FB6F894DEBF0FBECDBF3C015B01BF
:105310000E9444CE882EC5010E9452CE912C23E1DA
:1053200030E06901C81AD10825E2F22EC814D90468
:1053300014F49FE1F92E8F2D90E09C012E5F3F4FDA
:10534000409145104217130611F00CF04DC009971B
:1053500020914710281719060CF446C00091A605A5
:105360001091A7052091A4053091A5054091A305B2
:1053700010924810F092491085E1E82EB301CE0159
:1053800001961DDB6EE770E0CE0101963EDE11E076
:10539000A114B104A1F083E190E104DEC814D904A2
:1053A0002CF54CE0F40E80914510F81640F0209159
:1053B00047104F2D4950550B24171506CCF467960E
:1053C0000FB6F894DEBF0FBECDBFDF91CF911F9116
:1053D0000F91FF90EF90DF90CF90BF90AF909F9094
:1053E0008F907F906F90089510E0D2CF112339F302
:1053F00080E290E0A0E0B0E089839A83AB83BC8335
:105400008C2D880FC80ECC0CC0924810F092491019
:10541000CE0101966CDCC50160DFD1CF2F923F92A7
:105420004F925F926F927F928F929F92AF92BF92B4
:10543000CF92DF92EF92FF920F931F93CF93DF9360
:10544000CDB7DEB72D970FB6F894DEBF0FBECDBF38
:10545000982F862F3A016901502E2DB63EB6692F3E
:10546000ECDB882309F4A3C0C601002309F44AC079
:105470000E9444CEF82EA0901510B0901610809186
:10548000E20481115EC08FEF8D8783E1482E4F18B3
:105490000091A6051091A7052091A4053091A505BE
:1054A0004091A3058DB69EB6842D90E002966DB70F
:1054B0007EB7681B790B0FB6F8947EBF0FBE6DBF29
:1054C0008DB79EB701965C01E42CB30178DA782E93
:1054D00096E0499EB0011124C50197DD0FB6F894FE
:1054E0009EBE0FBE8DBEFF2009F461C0471881E14A
:1054F00090E158DD442009F441C08FE090E152DD95
:105500004A94F8CF0E9452CEF82EA0901510B09079
:1055100016108091E204882309F4B5CFFE0133967A
:105520008AE0DF011D928A95E9F781E190E19A8393
:10553000898300E61FE19E012F5F3F4F44E251EA5D
:1055400012C0FE0133968AE0DF011D928A95E9F7C9
:1055500081E190E19A83898300E61FE19E012F5F3C
:105560003F4F41E251EAB601C5010E940A74B501FC
:1055700081E190E10E9402E58F8186CF4091A205F2
:10558000AD858A2F90E0B6E0FB9E90011124029633
:10559000821793070CF4C90190E8981B9093481068
:1055A00040934910C601552001F10E9471200FB6A9
:1055B000F8943EBE0FBE2DBE2D960FB6F894DEBFFA
:1055C0000FBECDBFDF91CF911F910F91FF90EF9054
:1055D000DF90CF90BF90AF909F908F907F906F9013
:1055E0005F904F903F902F90089577DEE0CF4F92DD
:1055F0005F926F927F928F929F92AF92BF92CF9263
:10560000DF92EF92FF920F931F93CF931092700748
:1056100010926F072FE320937F0710927E0710925E
:105620007D071092740710927507109276071092FA
:1056300077079C01F90190812F5F3F4F9032D1F3A2
:105640009E34C9F4818190ED980F9A3020F08D320C
:1056500011F08B3281F432969F012F5F3F4F808192
:1056600080538A3008F473C09F012F5F3F4F8081C1
:10567000803209F46EC0F093D707E093D6078F010C
:105680000F5F1F4FC0816AE270E0C8010F9478225B
:10569000009731F0FC01319780818032E1F3118273
:1056A000CD3429F0C43519F0C73409F040C0F801F1
:1056B00080810F5F1F4F8032D1F380538A30B8F55D
:1056C000C0937F0710927E0710927D076AE09F01CA
:1056D0002F5F3F4F40917D0750917E07649FC0012F
:1056E000659F900D1124C0974081840F911D47FD47
:1056F0009A9590937E0780937D07F901208120532E
:105700002A3028F3DF0131962C912032D9F3CD34A1
:1057100061F58E31910539F0F0F48731910519F07A
:105720008C31910511F5B0937007A0936F07CF915D
:105730001F910F91FF90EF90DF90CF90BF90AF90AF
:105740009F908F907F906F905F904F900895F90198
:1057500083CFF90189CF8537910538F087379105D7
:1057600010F3803A23E09207F1F210927007109242
:105770006F075091D607C12CD12C7601C394FD013F
:1057800031964C91442399F2413299F4CD3489F405
:105790008032910571F4F0937007E0936F0763E234
:1057A00070E0CF010F947822009709F2FC0110827B
:1057B000BECF41544A3108F07DC0DF012D91203227
:1057C00009F460C030ED320F3A3008F46CC02E326C
:1057D00009F05AC0218120532A3008F464C0209176
:1057E0006F07309170072115310509F05EC0BF01C8
:1057F000615071097093700760936F07A42FB0E038
:105800002601370104C0440C551C661C771C4A95C0
:10581000D2F78090740790907507A0907607B090AB
:10582000770784289528A628B72880927407909235
:105830007507A0927607B092770721153105C1F15F
:10584000251BAF53BB4F2C9320812154DF012A31FC
:1058500008F495CFDF012191222309F490CF30ED98
:10586000320F3A30B8F333ED320F323098F32B3237
:1058700089F39D012F5F3F4F4C91403209F07FCF5C
:10588000D901F7CFFD0199CF2D3219F02B3209F054
:10589000A6CF218130ED320F3A3028F02E3209F0B8
:1058A0009ECF228198CF9F01A9CF30E020E0A6CFE4
:1058B00020E0C7CF20916F0730917007232B21F68E
:1058C000B0937007A0936F07BFCF8091740784FDDA
:1058D0000BC08091760787FD07C090917707937082
:1058E00081E019F480E0089581E0089581E08093DB
:1058F0009009089580916D0790916E07009731F09F
:105900004AE050E070E060E00D94701560E070E0F7
:10591000CB010895FC01659175918591949108954D
:10592000CF93DF93EC01FC0101900020E9F7CF0158
:1059300001978C1B9D0B8C33910540F44DE350E097
:10594000481B590B8C0F9D1F0F94D716CE01DF916A
:10595000CF9108951F93CF93DF93EC01162F40E072
:1059600050E0BA010E9411E8612FCE010E94D7E8F1
:105970008B898E7F8B8B2A89382F8C89482F437097
:1059800050E0E881F9810190F081E02D60E0CE01E6
:10599000DF91CF911F9119941F93CF93DF93EC0167
:1059A0000E94CBE8182F4FEF5FEF6FE070E0CE0161
:1059B0000E9411E860E0CE010E94D7E88B898160E7
:1059C0008B8B2A89382F8C89482F437050E0E881CF
:1059D000F9810190F081E02D60E0CE011995812FD1
:1059E000DF91CF911F910895CF92DF92EF92FF92B6
:1059F0000F931F93CF9390914102913009F461C0AE
:105A0000662351F01092BE041092BA041092BB04A7
:105A10001092BC041092BD04C82F0E941582C09041
:105A2000BA04D090BB04E090BC04F090BD049B018C
:105A3000AC012C193D094E095F0969017A01F7FC97
:105A400040C02091BE04C7FD15C04C2F0C2E000C89
:105A5000550B4C5F5F4FE22F022E000CFF0B4E17D1
:105A60005F077CF144EFC42EDD24D394E12CF12CAC
:105A70002C1734F438EEC32E33E0D32EE12CF12C66
:105A8000C60ED71EE81EF91EC092BA04D092BB04FF
:105A9000E092BC04F092BD04022F017010E084E299
:105AA000809FB001819F700D701B112460597C4F45
:105AB00082E390E00E9418CE8091BE048F5F8093B5
:105AC000BE04CF911F910F91FF90EF90DF90CF9088
:105AD0000895AC0180913C0781110EC090916B102C
